:020000040800F2
:1000000068070020D9010008031C0008AF19000888
:10001000011C0008D108000845220008000000006B
:10002000000000000000000000000000611D00084A
:10003000D3080008000000003D1C0008631D0008F4
:10004000F3010008F3010008F3010008F3010008C0
:10005000F3010008F3010008F3010008F3010008B0
:10006000F3010008F3010008F3010008F3010008A0
:10007000F3010008F3010008F3010008F301000890
:10008000F3010008F3010008F3010008F301000880
:10009000F3010008F3010008F3010008F301000870
:1000A000F3010008F3010008F3010008F301000860
:1000B000F3010008F3010008F3010008F301000850
:1000C000F3010008F3010008F3010008F301000840
:1000D000F3010008F3010008F3010008F301000830
:1000E000F3010008F3010008F3010008F301000820
:1000F000F3010008F3010008F3010008F301000810
:10010000F3010008F3010008F3010008F3010008FF
:10011000F3010008F3010008F3010008451E000880
:10012000F3010008F3010008F3010008F3010008DF
:10013000F30100080000000000000000F3010008C7
:10014000F3010008F3010008F3010008F3010008BF
:10015000F3010008F3010008F3010008F3010008AF
:10016000F3010008F3010008F3010008F30100089F
:10017000F3010008F3010008F3010008000000008B
:1001800000000000F3010008000000000000000073
:10019000F30100080000000000000000F301000867
:1001A000000000000000000000000000F301000853
:1001B000F3010008F3010008F3010008F30100084F
:1001C000F3010008DFF80CD000F038FB00480047CE
:1001D000C12F0008680700200648804706480047EE
:1001E000FEE7FEE7FEE7FEE7FEE7FEE7FEE7FEE7E7
:1001F000FEE7FEE7F11D0008C50100082DE9F05FEC
:100200000546002092469B46884606468146402485
:100210001BE0284641464746224600F058FA53461E
:100220005A46C01A914110D311461846224600F092
:100230003FFA2D1A67EB01084F46224601200021A4
:1002400000F036FA17EB00094E41201EA4F101041C
:10025000DFDC484631462A464346BDE8F09FD2B22D
:1002600001E000F8012B491EFBD270470022F6E79F
:1002700010B513460A4604461946FFF7F0FF20461C
:1002800010BD2DE9FE4F804681EA0300C00F0C46E9
:10029000009021F0004123F00045B8EB0200A94195
:1002A00005D24046214690461C460B46024623F0A6
:1002B0000040104347D0270DC7F30A00C3F30A518B
:1002C0000290401A019040286BDAC3F3130040F407
:1002D000801B0098924620B10023D2EB030A63EB07
:1002E0000B0B01985946C0F14002504600F0E0F96E
:1002F00006460D4650465946019A00F0F8F910EBB3
:1003000008006141002487EA115284EAE7731A4326
:1003100040D0009A62B3019A012A4FEA075215DCD5
:10032000001B61EB02014FF0004202EA0752CDE9E7
:100330000042001C41F5801132462B4600F02FFA96
:1003400003B0BDE8F08F40462146F9E7001B61EBA2
:100350000201001C41F5801300185B412018A2F532
:10036000001747EB030140EAD570B6196D4111E063
:100370006D084FEA360645EAC0754FEA0752001B82
:1003800061EB0201001C41F5801149084FEA300081
:100390000019514132462B4603B0BDE8F04F00F042
:1003A000EFB90098012240000023D0EB020263EB7A
:1003B000E073009821464FEAE074B8EB000061EB6F
:1003C0000401E9E783F000435BE781F0004158E76F
:1003D0002DE9FE4F81EA030404F0004421F00041BE
:1003E00000944FF0000B23F0004350EA01045ED06C
:1003F00052EA03045BD0C3F30A54C1F30A552C44F8
:10040000A4F2F3340194A0FB0254C1F3130141F4AC
:100410008011C3F3130343F4801301FB024400FB78
:10042000034E840A970A44EA815447EA8357A4FB9F
:10043000076802958D0A05FB07854FEA932C04FB9C
:100440000C542705029D4FEA065847EA1637B5EBCC
:1004500008056EEB070C870E920E47EA811742EAF9
:100460008312A7FB0201B6EB0B0164EB00042B0D1A
:1004700043EA0C335E1844EB1C50DA465146E7FB66
:100480000201C5F313044FEA0B3343EA14534FEA56
:100490000432019C43EA0603A4F10C040294009C7C
:1004A000CDE900B400F07BF903B0BDE8F08F002087
:1004B0000146F9E72DE9F04D81EA030404F0004B11
:1004C00021F0004514464FF0000A23F0004150EAA5
:1004D000050220D054EA01021DD0C5F30A57024696
:1004E000C5F31303C1F31300C1F30A5640F480159A
:1004F00043F48013A7EB0608101BD64608F2FD381C
:1005000073EB050002D308F1010801E092185B418A
:10051000B8F1000F03DA00200146BDE8F08D00209D
:100520004FF48011064684460EE0171B73EB050757
:1005300005D3121B63EB050306434CEA010C490883
:100540004FEA300092185B4150EA0107EDD152EAC0
:10055000030012D082EA040083EA0501084305D0B3
:10056000101BAB4106D20122002306E000224FF00F
:10057000004302E06FF0010253101AEB06004CEB4F
:10058000085110EB0A0041EB0B01BDE8F04D00F003
:10059000F7B80EB5C10F80EAE0700844CA07002121
:1005A00040F233438DE80E000A460B4600F0F7F8A0
:1005B00003B000BD70B5C1F30A5201F0004500243C
:1005C000C1F3130140F2FF3341F480119A4201DA82
:1005D000002070BD40F233439A42A2F2334203DC62
:1005E000524200F074F800E090402C43F1D04042B9
:1005F00070BD00F0004230F000400AD0C10D01F59E
:100600006071C0F3160042EA0151C208400711436D
:10061000704700200146704730B5041E71F1000498
:1006200004DB4FF00044404264EB0101141E73F1FF
:10063000000405DB1C464FF00043524263EB040309
:100640008B4208BF824230BD30B5041E71F10004F8
:1006500004DB4FF00044404264EB0101141E73F1CF
:10066000000405DB1C464FF00043524263EB0403D9
:10067000994208BF904230BD01F0004330B421F0F0
:10068000004150EA010206D00A0DA2F56072C1F3E2
:100690001301002A02DC30BC00207047440F44EAFA
:1006A000C104C100E01830BC00EBC25000F031B80A
:1006B000202A04DB203A00FA02F100207047914022
:1006C000C2F1200320FA03F3194390407047202A17
:1006D00004DB203A21FA02F00021704721FA02F3EC
:1006E000D040C2F120029140084319467047202AA9
:1006F00006DBCB17203A41FA02F043EAE07306E04A
:1007000041FA02F3D040C2F1200291400843194659
:1007100070470029A8BF7047401C490008BF20F05F
:100720000100704710B4B0FA80FC00FA0CF050EAF7
:10073000010404BF10BC704749B1CCF1200421FA78
:1007400004F411FA0CF118BF012121430843A3EB73
:100750000C01CB1D4FEA00614FEA102042BF002080
:1007600010BC704700EBC35010440029A4BF10BC5C
:100770007047401C490008BF20F0010010BC7047C2
:1007800010B5141E73F1000408DA401C41F1000199
:1007900092185B411A4301D120F0010010BD2DE9F0
:1007A000F04D92469B4611B1B1FA81F202E0B0FAE7
:1007B00080F220329046FFF77BFF04460F4640EA66
:1007C0000A0041EA0B0153465A46084313D011462A
:1007D00053EA010019D0C8F140025046FFF777FFF5
:1007E00005460E46504659464246FFF761FF08430C
:1007F00005D0012004E020463946BDE8F08D0020F8
:10080000054346EAE0762C4337430A986305E40A39
:10081000A0EB08000022FD0A44EA47540A3002D542
:1008200000200146E9E7010510196941DDE90845A5
:1008300000196941BDE8F04DA2E70000064C074DE4
:1008400006E0E06840F0010394E8070098471034A0
:10085000AC42F6D3FFF7BAFC404100086041000803
:100860000EB540F2334102910021CDE900110A4654
:100870000B46FFF794FF03B000BD70B58C1810F85D
:10088000015B15F0070301D110F8013B2A1106D1D5
:1008900010F8012B03E010F8016B01F8016B5B1EEF
:1008A000F9D12B0705D40023521E0DD401F8013BCA
:1008B000FAE710F8013BCB1A921C03E013F8015B36
:1008C00001F8015B521EF9D5A142D8D3002070BDBA
:1008D000FEE770477047000070B5044600F0E2F88C
:1008E0000546601C02D004480078044400F0DAF8A1
:1008F000401BA042FAD370BD000000202DE9F84F44
:1009000000224FF0010803254FF00F0E0B6808FA84
:1009100002F42340A3426ED14E68012E05D0022E70
:1009200003D0112E01D0122E12D186684FEA420C4C
:1009300005FA0CF7BE43CF6807FA0CF73743876018
:100940004668A6430C79C4F30014944034434460D1
:10095000C668570005FA07FC8C6826EA0C06BC40FE
:100960003443C4604C68022C01D0122C13D1D4083B
:1009700000EB8404A346D4F8209054074FEAD46ACD
:100980000EFA0AF629EA06090E6906FA0AF646EA96
:100990000906CBF8206006680C7926EA0C0604F0FC
:1009A0000304BC40344304604C68E40060D5334C1D
:1009B000266846F480462660246822F0030604F484
:1009C000804400942E4C3444A446D4F8084896073A
:1009D000370F0EFA07F6B4432A4EB04201D1002673
:1009E0001FE0294EB04201D101261AE0274EB04245
:1009F00002D1022615E03BE0254EB04201D103268C
:100A00000FE0244EB04201D104260AE0224EB0424B
:100A100001D1052605E0214EB04201D1062600E0B5
:100A20000726BE402643CCF808681D4E34684F6840
:100A30009C43FF0300D51C433460194E361D3468B7
:100A40004F689C43BF0300D51C433460144E0836E6
:100A500034684F689C43FF0200D51C433460104E3D
:100A60000C3634684F689C43BF0200D51C43346089
:100A7000521C102AFFF44AAFBDE8F88F44380240F8
:100A80000030014000000240000402400008024023
:100A9000000C024000100240001402400018024006
:100AA000003C0140014880687047000000000020C1
:100AB000024881680278114481607047000000207C
:100AC0000B4810B5016841F400710160016841F400
:100AD00080610160016841F480710160032000F0D1
:100AE00071F8002000F006F800F024F8002010BD96
:100AF000003C024070B50D4D04464FF47A712878E1
:100B0000B1FBF0F00A490968B1FBF0F000F04AFBD4
:100B100048B9102C07D200222146501E00F032F8AE
:100B200000206C6070BD012070BD0000000000203E
:100B30000C0000200B4882B0016841F48041016044
:100B4000006800F4804000900648001F016841F0F2
:100B500080510160006800F080500090072002B0D2
:100B600000F030B844380240002809DB00F01F02D2
:100B7000012191404009800000F1E020C0F80011FF
:100B800070470000F0B40E4B1B680C46C3F3022301
:100B9000C3F10705042D00D90425191D072901D229
:100BA000002300E0DB1E012606FA05F1491E214064
:100BB00099409E40761E16403143F0BC01F06EBB5A
:100BC0000CED00E0064900F0070208684FF6FF034D
:100BD000184040EA0220034A1043086070470000B2
:100BE0000CED00E00000FA052DE9F8431748016814
:100BF00041F0805101600068154F00F080500126DF
:100C000000903E64FFF74EFF05464FF47A78114C92
:100C100005E000BFFFF746FF401B40450DD8606868
:100C2000C003F7D57E64FFF73DFF0546464607E063
:100C3000FFF738FF401BB04202D90320BDE8F8831C
:100C400060688003F4D50020F8E7000040380240D7
:100C500000000E42007000402DE9F0470E460500EE
:100C600065D0DFF81481D8F80000F7B200F00F006B
:100C7000B04207D288F80070D8F8000000F00F00EA
:100C8000B04254D128683D4C810712D5400703D5A6
:100C9000206840F4E05020602878000703D52068E1
:100CA00040F4604020602068A96820F0F00008430C
:100CB00020602878C0072DD030496868083901289D
:100CC00012D0022813D0032811D0096889070029FF
:100CD0002DDA216821F0030101432160FFF7E2FED4
:100CE000814641F2883A0EE009688903EFE7096816
:100CF0008901ECE7FFF7D6FEA0EB0901514502D9C7
:100D00000320BDE8F0872068696800F00C00B0EBB4
:100D1000810FEFD1D8F80010404601F00F01B14229
:100D200007D90770006800F00F00B04201D0012021
:100D3000E7E72878400705D52068E96820F4E05007
:100D4000084320602878000706D52068296920F428
:100D5000604040EAC100206000F038F82168084A8D
:100D6000C1F30311515CC840064908600648006899
:100D7000FFF7C0FE0020C4E7003C024008380240F4
:100D8000044000080C00002004000020044805492D
:100D900000680968044AC1F38221515CC840704769
:100DA0000C0000200838024014400008044805499F
:100DB00000680968044AC1F34231515CC840704779
:100DC0000C0000200838024014400008224810B5EA
:100DD000006810F00C02214815D04110042A11D0EF
:100DE0001D4C241F082A0FD00C2A0CD1226823681E
:100DF00002F03F025B0221D52068C0F38810A0FBFF
:100E0000010120E0084610BD2268236802F03F027D
:100E10005B0205D52068C0F38810A0FB010104E047
:100E20002168C1F38811A1FB00010023FFF7E6F957
:100E30002168C1F30141491C49000AE02168C1F35E
:100E40008811A1FB00010023FFF7D8F92168C1F345
:100E50000271B0FBF1F010BD083802400024F4002C
:100E60002DE9F84F0546DFF828B30078ABF1040709
:100E7000C007A7F1040451D0DBF800105846C1F3B5
:100E8000810101290FD00168C1F38101022902D13A
:100E90003968490207D40068C0F38100032809D1EA
:100EA0003868400206D52068800337D56868002876
:100EB00072D033E06868B0F5803F10D0B0F5A02F55
:100EC000206810D020F480302060206820F480203A
:100ED00020606868A8B1FFF7E5FD06460DE02068D0
:100EE00040F48030F4E740F480202060F7E700BF52
:100EF000FFF7D8FD801B642878D820688003F7D5D9
:100F00000CE0FFF7CFFD064605E000BFFFF7CAFD86
:100F1000801B6428F0D820688003F7D42878DFF895
:100F2000749280074FF0000A46D5DBF8001058464F
:100F300011F00C0F0FD00168C1F38101022902D119
:100F40003968490207D50068C0F38100032809D138
:100F50003868400206D42068800715D5E868012863
:100F60001AD111E0E868C0B10120C9F80000FFF70C
:100F700099FD064605E000BFFFF794FD801B02289F
:100F8000BAD820688007F7D52068296920F0F800D2
:100F900040EAC10020600FE0F7E0C9F800A0FFF7C9
:100FA00081FD064605E000BFFFF77CFD801B02289F
:100FB0001CD820688007F7D42878000727D5DFF8E9
:100FC000D0817548696908F16C0881B1012101601F
:100FD000FFF768FD064604E0FFF764FD801B02286A
:100FE00004D8D8F800008007F6D510E089E0C0F8F2
:100FF00000A0FFF757FD064605E000BFFFF752FDD2
:10100000801B02287DD8D8F800008007F6D4287805
:10101000400769D55E484FF0000838300068C000CE
:101020000BD45B483830016841F0805101600068A2
:101030004FF0010800F080500090584E3068C00515
:1010400011D4306840F480703060FFF72BFD0090C1
:1010500006E000BFFFF726FD0099401A022850D88D
:101060003068C005F6D54A4EA868683601280FD00A
:101070000528306810D020F001003060306820F082
:1010800004003060A868B8B1FFF70CFD00900FE0D5
:10109000306840F00100F4E740F004003060F7E70A
:1010A000FFF700FD0099411A41F28830814264D86F
:1010B00030688007F4D50EE0FFF7F4FC009007E0FD
:1010C000FFF7F0FC0099411A41F28830814254D870
:1010D00030688007F4D4B8F1000F05D02C483830C0
:1010E000016821F080510160A869A8B3DBF8001005
:1010F000C1F38101022948D00228C9F860A005D0B7
:1011000000E03AE0FFF7CEFC054639E0FFF7CAFC05
:10111000064604E0FFF7C6FC801B02282DD8206895
:101120008001F7D4F5E907010843E9681C4A49083A
:1011300002EB0141AA6841EA82110843297C40EA96
:101140000160297D40EA017038600120C9F8600023
:10115000FFF7A8FC054606E015E000BFFFF7A2FC7C
:10116000401B022809D820688001F7D50BE000BF9A
:10117000FFF798FC401B022802D90320BDE8F88F36
:1011800020688001F4D40020F8E70120F6E7000091
:101190000838024000004742800E4742007000407D
:1011A0000000FFFF10B5401EB0F1807F01D3012089
:1011B00010BD4FF0E02460610F21601701F06EF860
:1011C0000020A06107202061002010BD70477047FB
:1011D00010B590F83C20012A22D0012280F83C2052
:1011E000CA688C6822F4407222434C6822F4806200
:1011F00022430C6822F4006222430C6922F48052DC
:1012000022434C6922F400522243C969002322F48C
:1012100080420A4301684A6480F83C30002010BDD7
:10122000022010BD70B590F83C20012A32D0012474
:1012300080F83C40022280F83D2003685A689D688F
:1012400022F070060A6832435A60134B02689A42D1
:1012500014D0B2F1804F11D0104B9A420ED0104BE7
:101260009A420BD00F4B9A4208D00F4B9A4205D0AE
:101270000E4B9A4202D00E4B9A4204D1496825F097
:1012800080031943916080F83D40002180F83C10B4
:10129000084670BD022070BD0000014000040040FF
:1012A00000080040000C00400004014000400140E4
:1012B0000018004010B5040003D094F83D0010B1B0
:1012C00007E0012010BD002084F83C00204600F01B
:1012D0000DF8022084F83D00211D206800F0B8FDC3
:1012E000012084F83D00002010BD000008B5006812
:1012F0000B49884212D10B48016841F0200101607E
:101300000068002200F02000009011463720FFF70F
:1013100039FCBDE808403720FFF726BC08BD0000B7
:1013200000140040403802400168CA6842F00102DF
:10133000CA600068816801F00701062903D00168CE
:1013400041F001010160002070472DE9F0410D4698
:10135000040003D094F83D0018B108E00120BDE876
:10136000F081002084F83C00204600F03BF8022089
:1013700084F83D002068816844F20702914381604F
:10138000211D206800F064FD226890689169166A4A
:101390002B68AF69034340F20330814341EA0721E0
:1013A000A868EF6908434FF6FC418843E96840EAC2
:1013B0000720014328692F6A000140EA07300843EB
:1013C00069686D6926F0AA0646EA05152943936007
:1013D0002268906120680162012084F83D000020AD
:1013E000BDE70000F0B587B0044614216846FEF75B
:1013F0003DFF21481F4F266800221F491038C02595
:1014000002230124BE4217D10E6846F002060E6088
:10141000096801F002010591016841F001010160D4
:10142000006800950392CDE9013400F00100CDE998
:1014300004306946114819E0114FBE4218D10E68B8
:1014400046F004060E60096801F004010591016888
:1014500041F002010160006800950392CDE901347A
:1014600000F00200CDE9043069460648FFF746FA6D
:1014700007B0F0BD000400404038024000000240C8
:10148000000800400004024010B50446006891B115
:10149000042904D00122002100F03EFD2068012231
:1014A0005FF0040100F038FD2068016841F001019F
:1014B0000160002010BD01220021F3E7704770B5E4
:1014C0000446006801694FF00005C943890715D437
:1014D000C168C943890711D4E91E01610120207741
:1014E000206880698007204602D0FFF7E7FF04E00C
:1014F00000F0C2F8204600F057F92577206801690E
:10150000C943490717D4C168C943490713D46FF0C9
:1015100004010161022020772068806910F4407F77
:10152000204602D0FFF7CAFF04E000F0A5F82046ED
:1015300000F03AF9257720680169C943090716D4F4
:10154000C168C943090712D46FF008010161042082
:1015500020772068C0698007204602D0FFF7AEFFE1
:1015600004E000F089F8204600F01EF92577206895
:101570000169C943C90617D4C168C943C90613D450
:101580006FF010010161082020772068C06910F415
:10159000407F204602D0FFF791FF04E000F06CF896
:1015A000204600F001F9257720680169C943C90781
:1015B00008D1C168C943C90704D1891E0161204609
:1015C00000F016F920680169C943090609D4C16809
:1015D000C943090605D46FF0800101612046FFF779
:1015E000F5FD20680169C943490609D4C168C943AA
:1015F000490605D46FF040010161204600F014F95E
:1016000020680169C94389060BD4C168C9438906AA
:1016100007D46FF0200101612046BDE87040FFF75C
:10162000D6BD70BD10B586B0044614216846FEF7DD
:101630001DFE0E492068884216D10D48002102681F
:1016400042F001020260006800F0010005904FF4D2
:10165000706000900220CDE901010120CDE9031066
:1016600069460448FFF74AF906B010BD0000014082
:101670003038024000000240704770B5044690F8D0
:101680003C000D4601280DD0012684F83C60022064
:1016900084F83D0042B1042A18D0082A2AD00C2A26
:1016A0004DD139E0022070BD206800F043FC206875
:1016B000816941F0080181612068816921F004019C
:1016C0008161206881692A69114311E0206800F076
:1016D00061FC2068816941F4006181612068816951
:1016E00021F480618161206881692A6941EA0221CF
:1016F000816124E0206800F083FC2068C16941F02A
:101700000801C1612068C16921F00401C16120683C
:10171000C1692A69114311E0206800F0A5FC206826
:10172000C16941F40061C1612068C16921F480612F
:10173000C1612068C1692A6941EA0221C16184F856
:101740003D60002084F83C0070BD10B5040003D05B
:1017500094F83D0010B107E0012010BD002084F88E
:101760003C00204600F00CF8022084F83D00211DCA
:10177000206800F06DFB012084F83D00002010BDC2
:1017800008B500680649884208D10648016841F05A
:1017900001010160006800F00100009008BD000038
:1017A00000000140443802407047000010B5044674
:1017B0000068012200F0B0FB0B492068884202D08B
:1017C0000A49884203D1416C41F4004141642068D8
:1017D000816801F00701062903D0016841F0010189
:1017E0000160002010BD0000000001400004014025
:1017F00010B500680A49884210D102F0ADFA00F035
:1018000001FA084800680A2190FBF1F201FB12007E
:10181000002803D1BDE8104002F0AAB910BD0000B5
:101820000014004014000020704770B5040004D07C
:1018300094F83900002510B106E0012070BD84F84D
:101840003850204600F022F8242084F8390020681F
:10185000C16821F40051C160204600F02DFC2068D1
:10186000016921F4904101612068416921F02A0158
:1018700041612068C16841F40051C160E5632020E6
:1018800084F8390084F83A00002070BD10B586B0A5
:10189000044614216846FEF7E9FC13492068884293
:1018A0001FD11248016841F400210160006800F472
:1018B000002005900D481038016841F001010160D9
:1018C0000068022100F0010005900320CDE900012D
:1018D0000121CDE902100820049069460448FFF771
:1018E0000DF806B010BD0000004C0040403802402A
:1018F000000002402DE9F843044690F839001F46E5
:1019000016460D46202850D1B5B1AEB194F8380036
:1019100001284AD0012084F838004FF00008C4F8AC
:101920003C80212084F83900FFF7BCF8A68481466A
:10193000E68484F8388026E00120BDE8F883E08C56
:10194000401EE084A0684B46B0F5805F4FF0000277
:101950004FF080012046009703D000F041FCE8B929
:101960000DE000F03DFCC8B928882168C0F30800EC
:101970004860206908B16D1C05E0AD1C03E02168DA
:1019800015F8010B4860E08C0028D8D14B460022A6
:1019900040212046009700F023FC08B10320CCE74B
:1019A000202084F839000020C7E70220C5E7FEE7C1
:1019B000094808B5016841F001010160016801F0C2
:1019C00001010091016841F002010160006800F02E
:1019D0000200009008BD00003038024010B592B0FF
:1019E00000240F941C2168461094FEF73FFC202130
:1019F00007A8FEF73BFC2C482A49C0E9001441F235
:101A00009311C0E90241046144618461FFF79DFEC6
:101A100008B1FEF75FFF0F940FA923481094FFF75A
:101A200001FC08B1FEF756FF6020CDE900040294E6
:101A3000039404940594002269461B480694FFF71A
:101A40001CFE08B1FEF746FF042269461648FFF760
:101A500014FE08B1FEF73EFF082269461248FFF760
:101A60000CFE08B1FEF736FF0C2269460E48FFF760
:101A700004FE08B1FEF72EFF0794089409944FF472
:101A800000500A94CDE90B4007A907480E94FFF7D0
:101A90009FFB08B1FEF71EFF0348FFF7C3FD12B01E
:101AA00010BD0000000001402402002010B58CB0E1
:101AB00024216846FEF7DAFB0024164809941449ED
:101AC0000A94C0E900144FF6FF71C0E902410461B5
:101AD00084610320CDE900040120CDE902040494CF
:101AE000CDE90540079469460A480894FFF72DFCA4
:101AF00008B1FEF7EFFE099409A906480A94FFF71A
:101B000091FB002801D0FEF7E5FE0CB010BD0000EF
:101B1000000400406402002010B58CB02421684607
:101B2000FEF7A4FB00241648099414490A94C0E95E
:101B300000144FF6FF71C0E9024104618461032083
:101B4000CDE900040120CDE902040494CDE905406B
:101B5000079469460A480894FFF7F7FB08B1FEF7B7
:101B6000B9FE099409A906480A94FFF75BFB00280F
:101B700001D0FEF7AFFE0CB010BD00000008004021
:101B8000A40200201CB500240E4800940C490194C6
:101B900001605321C0E9011440F2E7318461C16062
:101BA000FFF788FB08B1FEF795FE009469460548EB
:101BB0000194FFF737FB002801D0FEF78BFE1CBD18
:101BC00000140040E40200200C4810B50A490160EE
:101BD0004FF416514160002181600C22C160C0E9C0
:101BE00004128161C161FFF720FE002803D0BDE827
:101BF0001040FEF76FBE10BD004C004024030020D3
:101C0000FEE770470C48426BC263016B8163436916
:101C1000002B01DB012301E04FF0FF33036343633B
:101C2000934202D0426C521C4264026B8A4202D040
:101C3000016C491C01647047E000002070470000FF
:101C400070B5444C444D2DED048BB0EE608AF0EE3F
:101C5000408A94ED000AD4ED000AB0EE419A30EECD
:101C6000680A70EEE80A95ED001A20EE200AD5ED1C
:101C7000000A31EE481A70EEC80A00EE810A00F040
:101C800007FDF0EE400A95ED000A38EE401A81EEAD
:101C9000200A00F09FFBB5EEC00AF1EE10FA01DD5C
:101CA000012001E04FF0FF302C4EB06294ED000AAD
:101CB000D4ED000A95ED001A30EE680A70EEE80ADD
:101CC00031EE481A20EE200AD5ED000A70EEC80A5F
:101CD00000EE810A00F0DCFCF0EE400A94ED000A10
:101CE00038EEC01A81EE200A00F0E8FA10EE100A71
:101CF000FEF77FFC41EC100B01F0FEFBD6ED0A0A6B
:101D0000F8EEE00A20EE200AF0EE490A86ED040A19
:101D100001F0CAFB94ED000AD4ED000A95ED001A1B
:101D200030EE680A70EEE80A31EE481A20EE200A1A
:101D3000D5ED000A70EEC80A00EE810A00F0A8FC9A
:101D400086ED030AF0EE490ABDEC048BBDE8704055
:101D500001F0F4B92C00002030000020A801002080
:101D60007047FEF7A5BE000030B593B03421684639
:101D7000FEF77CFA14210DA8FEF778FA1A48002520
:101D8000016841F080510160006800F080501290BD
:101D90001648016841F4404101600068022400F4E3
:101DA000404012900120039010200490009406946B
:101DB0000820CDE90750B420CDE909040B9468460A
:101DC0000C94FFF74DF8FEF70FFF0DA90F2081E8E7
:101DD00031004FF4A0501090E002119005210DA8A1
:101DE000FEF73AFF13B030BD4038024000700040AB
:101DF0001048016841F4700101600F48016841F02A
:101E0000010101600C4A00210832116002680B4B8D
:101E10001A400260031D0A4A1A60026822F48022F6
:101E2000026005480C30016002495806803908609C
:101E30007047000088ED00E000380240FFFFF6FE2A
:101E4000103000240148FFF73ABB0000E4020020F4
:101E5000F0B50268254C264D264E274F274B4FF0F4
:101E6000804CA04209D0604507D0A84205D0B042BE
:101E700003D0B84201D0984204D122F0700E4A68D3
:101E800042EA0E02A0421BD0604519D0A84217D0EA
:101E9000B04215D0B84213D0984211D0184DA84284
:101EA0000ED0184DA8420BD0174DA84208D0174DA0
:101EB000A84205D0164DA84202D0164DA84203D123
:101EC00022F44075CA682A434D6922F080022A43F1
:101ED00002608A68C2620A688262A04201D09842A7
:101EE00001D10969016301214161F0BD0000014098
:101EF0000004004000080040000C004000040140C5
:101F000000400140004401400048014000180040EA
:101F1000001C00400020004010B501F01F0301210B
:101F2000046A99408C430462016A9A401143016239
:101F300010BD0000F0B5026A22F001020262036ADD
:101F400042688469124E24F073050C682C4323F018
:101F500002058B682B430D4DA84201D0B04205D13C
:101F600023F00807CB683B4323F00403A84201D0C9
:101F7000B04205D14D6922F4407215438A692A4363
:101F800042608461496841630362F0BD0000014022
:101F900000040140F0B5026A22F010020262026AF7
:101FA000436884690D6824F4E64444EA05248D6896
:101FB00022F0200242EA05120F4D104EA84201D035
:101FC000B04206D1CF6822F0800242EA071222F026
:101FD0004002A84201D0B04207D14D6923F44063CA
:101FE00043EA85038D6943EA850343608461496858
:101FF00081630262F0BD0000000001400004014066
:10200000F0B5026A22F480720262026A4368C4690F
:1020100022F4007224F073050C68124E2C438D6874
:1020200042EA05220E4DA84201D0B04206D1CF6847
:1020300022F4006242EA072222F48062A84201D020
:10204000B04207D14D6923F4405343EA05138D692B
:1020500043EA05134360C4614968C1630262F0BD8D
:10206000000001400004014030B5026A22F48052B1
:102070000262046A4268C3690D6823F4E64343EAD6
:1020800005238D6824F4005444EA0534084DA84221
:1020900002D0084DA84204D14D6922F4804242EAA0
:1020A00085124260C36149680164046230BD00006A
:1020B00000000140000401402DE9F04104460068A1
:1020C0000169E26821F44051114301612169A0686E
:1020D000E26908436169114308432168CA6849F20B
:1020E0000C639A430243CA6020684169A26921F4E3
:1020F000407111434161E069192764253226B0F52A
:10210000004F354A354920684FF0000806D0884214
:1021100001D0904236D1FEF749FE35E0884201D029
:10212000904202D1FEF742FE01E0FEF72FFE616809
:102130004A18A0FB070148EB0803FEF75FF80146C9
:10214000B0FBF5F00201B1FBF5F06FF01803584356
:1021500001EB800006EBC000B0FBF5F000F0F800EA
:1021600002EB4002B1FBF5F0584301EB800006EBB7
:10217000C000B0FBF5F000F0070021681044886053
:10218000BDE8F081FEF702FE61688B0F8A00A0FBBC
:102190000701FEF733F80146B0FBF5F06FF01802C7
:1021A000504301EB800006EB0010B0FBF5F000F0AF
:1021B000F002B1FBF5F002EB0012B1FBF5F06FF0AD
:1021C0001803584301EB800006EB0010B0FBF5F05C
:1021D00000F00F00D1E700000014014000100140A2
:1021E0002DE9F041984617460E460446069D1DE02F
:1021F000681C1BD02DB1FEF755FCA0EB0800A842CF
:1022000014D92068C16821F4D071C1602068416987
:1022100021F001014161202084F8390084F83A005E
:10222000002084F838000320BDE8F08120680068B1
:1022300036EA000004D00020B842D9D00020F3E7ED
:102240000120F9E7FEE703B401984100009850EA45
:10225000C12018BF04204A0D18BF40F0010040F211
:10226000FF72B2EB515F08BF40F00200012808BFC7
:10227000052002B070474100080218BF04200A0E72
:1022800018BF40F001004FF07F4232EA010108BF61
:1022900040F00200012808BF052070470907090E19
:1022A000002804DB00F1E02080F80014704700F003
:1022B0000F0000F1E02080F8141D704710B510EEFB
:1022C000104A4FF01A402DED028B00EB4400B0F1A4
:1022D000C85F4AD84FF0FC40B0EB440F22D2B0EEBA
:1022E000C00AF7EE000A30EEC00AF6EE000A20EE51
:1022F000208A18EE100A01F0EBFC00EE100A14F030
:10230000004F1DBF9FED281ADFED280AB1EE400AED
:102310009FED271A08BFF0EE410AF8EE001A20EEF2
:10232000210A05E020EE008A9FED221ADFED220A45
:10233000DFED221A9FED222A70EEC00A20EE080A75
:1023400008EE212ADFED1F1A48EE021A9FED1E2A21
:1023500008EE212ADFED1D1A48EE021ABDEC028BB1
:1023600040EE610A30EE810A10BD4FF0CC40B0EB78
:10237000440F82BF9FED160ABDEC028B10BD4FF0DB
:102380007F40B0EB440F05D2BDEC028BBDE810409E
:1023900000F0B2BD012000F0D3FDBDEC028BBDE822
:1023A000104000F0ADBD00000000494022AA7D3A77
:1023B000000000000000C93F22AAFD3924FE1C3D98
:1023C000C78AD83C1E67383D1B93993DAFAA2A3E69
:1023D000DB0FC93F10B54FF00E402DED028BB0EE74
:1023E000408A18EE104A00EB4400B0F1506F4AD812
:1023F0004FF0FC40B0EB440F22D2B0EEC80AF7EE2B
:10240000000A30EEC00AF6EE000A60EE208A18EEEE
:10241000900A01F05DFC01EE100A14F0004F1DBFA0
:10242000DFED2D0A9FED2D0AB1EE411ADFED2C0AEA
:1024300008BF9FED2C0AF8EE001A21EE218A05E074
:10244000DFED290A68EE088AB0EE600A9FED271AD0
:10245000DFED271A30EE080A48EE811A9FED251AA3
:1024600008EEA11ADFED241A48EE811A9FED231A17
:1024700008EEA11A68EE281ABDEC028B01EE810A63
:1024800030EE200A10BD4FF0E440B0EB440F0CD901
:1024900018EE100AFFF7EFFE042808BF00F038FD21
:1024A000B0EE480ABDEC028B10BD4FF07F40B0EBA0
:1024B000440F07D2B0EE480ABDEC028BBDE81040D5
:1024C00000F01ABD012000F03BFDBDEC028BBDE821
:1024D000104000F015BD00000000C9BF22AAFDB9E0
:1024E0000000C93F22AAFD390000000024FE1C3D67
:1024F000C78AD83C1E67383D1B93993DAFAA2A3E38
:1025000010B52F499FED2C1B2DED020B84B00598C3
:1025100020F000408842D8BF9DED040B2DDD2949F5
:10252000884209D1049840B94FF0010000F008FD3D
:1025300000F0C2FC06B010BD05DB9DED040B00F001
:10254000AFFC06B010BD68469DED040B00F0C0F86E
:1025500010F0030004BF9DED021B9DED000B0CD09D
:1025600001280ED09DED021B9DED000B022817D017
:10257000012000F0FDFB06B010BD00F0C5FA06B06A
:1025800010BD9DED021B9DED000B012000F0F0FB46
:1025900051EC100B81F0004106B041EC100B10BD66
:1025A00000F0B2FA51EC100B81F0004106B041ECA2
:1025B000100B10BD00000000000000000000000033
:1025C000FB21E93F0000F07F10B52F499FED2C1B48
:1025D0002DED020B84B0059820F000408842DCBF4E
:1025E00000209DED040B32DD2849884209D1049872
:1025F00040B94FF0010000F0A3FC00F05DFC06B014
:1026000010BD05DB9DED040B00F04AFC06B010BDCB
:1026100068469DED040B00F05BF810F0030011D04C
:10262000012818D09DED021B9DED000B02281AD049
:1026300000F06AFA51EC100B81F0004106B041EC59
:10264000100B10BD9DED021B9DED000B012000F055
:102650008FFB06B010BD9DED021B9DED000B00F041
:1026600053FA06B010BD012000F082FB51EC100BB4
:1026700081F0004106B041EC100B10BD00000000DD
:102680000000000000000000FB21E93F0000F07F97
:1026900010B52DED028BB1EEC08A18EE100A20F0B5
:1026A0000040C0F1FF40C00F0AD010EE100A20F029
:1026B0000040C0F1FF40C00F04BF012000F040FC0B
:1026C000B0EE480ABDEC028B10BD00000000000017
:1026D0002DE9F14F04462DED020B2DED088B8AB04C
:1026E0009FEDE70B80ED020B139EE74826F00045B7
:1026F00085420ADC9DED120B002084ED000B0AB030
:10270000BDEC088B03B0BDE8F08FE0489FEDE0AB77
:102710009FEDE1BBA84247DDE14F9FEDE39B9FEDBD
:10272000E48B9DED120B53EC1A2B51EC100B002E89
:102730001CDDFDF747FE41EC100BBD4208D053EC09
:102740001B2B51EC100BFDF73DFEC4E900010BE023
:1027500053EC192B51EC100BFDF734FE53EC182BF6
:10276000FDF730FEC4E900010120C8E7FDF789FD4F
:1027700041EC100BBD4208D053EC1B2B51EC100B5D
:10278000FDF77FFDC4E900010BE053EC192B51EC80
:10279000100BFDF776FD53EC182BFDF772FDC4E925
:1027A00000014FF0FF30AAE7C348A84279DB9DED56
:1027B000120B51EC100B00F0C9FB41EC180B9FED14
:1027C000C00B53EC102BFDF703FE9FEDBF1B53EC2A
:1027D000112BFDF756FDFDF7EDFE0746FDF7D9FE7F
:1027E00041EC190B53EC1A2BFDF7F2FD53EC182BAF
:1027F000FDF7EBFD41EC180B53EC1B2B51EC190BC7
:10280000FDF7E6FDDFF8C8A241EC100B4FEA1558C2
:102810000125FA4453EC102B51EC180BFDF7D2FDB7
:10282000032DC4E900013DD0C1F30A5005EB451169
:10283000A8EB00001139814234DA0AEB051BB0EE37
:1028400048AA9BED000BF0EE68AA53EC102B51EC5C
:10285000190BFDF7BDFD41EC1B0B51EC1A0B53ECB2
:102860001B2BFDF7AFFD41EC180B51EC1A0B53EC91
:10287000182BFDF7A7FD53EC1B2BFDF7A3FD9BEDDC
:10288000020B41EC1A0B53EC102B51EC190BFDF71A
:102890009FFD53EC1A2BFDF795FD41EC100B6D1CC1
:1028A000B8E70EE0002EA8BF3846BFF628AF94ED7B
:1028B000000B51EC100B81F00041C4E9000178429B
:1028C0001DE7C6F3130040F4801EC6F30A50A0F2C1
:1028D000F530471100F01F05C5F12000DDF848B0C4
:1028E00008900020069007900520EC467949002DBD
:1028F00007EB0002794408BF51F8221009D051F8C3
:10290000223001EB8201AB404A68089922FA01F1BA
:102910001943A1FB0E26A1FB0B131A449A4234BFA4
:102920000123002303EB06080CEB8003D3E901A687
:102930000E448E4234BF0121002192448A4411B1D9
:10294000924502D903E0924501D2012100E0002125
:10295000C3E901A641444CF82010011EA0F101007A
:10296000C4DC029800F10050850F0298DDE903678E
:102970008000DDF81480FDF70CFE41EC1A0B3046A8
:10298000FDF76EFF9FED541B53EC112BFDF720FD5F
:1029900041EC1B0B3846FDF763FF9FED511B53ECD9
:1029A000112BFDF715FD41EC180B4046FDF758FFC4
:1029B0009FED4D1B53EC112BFDF70AFD41EC190B5C
:1029C00051EC180B53EC192BFDF75BFC53EC1B2B54
:1029D000FDF757FC53EC1A2BFDF753FCCDE908012A
:1029E000002008909DED080B53EC1A2B51EC100BB6
:1029F000FDF7E8FC53EC1B2BFDF7E4FC53EC182B24
:102A0000FDF7E0FC53EC192BFDF7DFFC9FED381BC5
:102A100053EC112BFDF7DCFC9FED370B41EC180B51
:102A200053EC102B9DED080B51EC100BFDF7D0FC77
:102A300053EC182BFDF725FC9FED310B41EC180BE7
:102A400053EC102B9DED080B51EC100BFDF7C0FC67
:102A500053EC182BFDF715FC41EC100B139810F0FC
:102A6000004F06D06D4251EC100B81F0004141EC5B
:102A7000100B284684ED000B41E60000000000002A
:102A80000000000000000000FB21E93F7CD902406B
:102A900000004054FB21F93F3163621A61B4D03D1C
:102AA000FB21F93F000000000000601A61B4D03D36
:102AB0007370032E8A19A33BFB21394100000000EB
:102AC00083C8C96D305FE43F000000000000E03FB4
:102AD0003A18000088170000000000000000103EB7
:102AE000000000000000103C000000000000103A50
:102AF000182D4454FB21F93D3326A611460B113CF9
:102B000000000054FB21F93D10B52DED040B2DED17
:102B1000088B82B0B0EE419AF0EE619A0B9820F0EB
:102B200000449FED4BABB4F1795F11DA9DED0A0BD8
:102B300051EC100BFDF73EFD002801BFB0EE4A0A34
:102B4000F0EE6A0A02B0BDEC088B04BF04B010BD01
:102B50009DED0A0B53EC102B51EC100BFDF738FCDC
:102B600041EC180B3C480621B0EE480AF0EE680A2A
:102B7000784400F081F853EC182B51EC100BFDF762
:102B800027FC9DED0A0B41EC1B0B53EC192B51EC70
:102B9000100BFDF71DFC41EC190B53EC1B2B51ECFA
:102BA000180BFDF715FC53EC192BFDF70BFC9FEDF3
:102BB0002C0B41EC190B53EC102B51EC180BFDF7BF
:102BC00007FC41EC100B2848844210DA53EC192B17
:102BD00051EC100BFDF7F6FB53EC1A2BFDF7F5FB50
:102BE00041EC100B02B0BDEC088B04B010BD1F48C7
:102BF000A042BCBF9FED1E1B8DED001B06DBA4F5A4
:102C000000100190002000909DED001B51EC100B76
:102C100053EC112BFDF7D6FB9DED000B41EC180B8F
:102C200053EC102B51EC1A0BFDF7CCFB41EC1A0BBB
:102C300053EC192B51EC180BFDF7C4FB53EC1A2B7A
:102C4000FDF7C3FB41EC100BCCE7000000000000D7
:102C5000000000000000F03FAC1400000000000085
:102C6000000000000000E03F3333D33F0000E93FA5
:102C7000000000000000D23F70B504462DED028B2D
:102C80004D1E00EBC500B0EE408AF0EE608A90ED7C
:102C9000000B35F0060017D053EC182B51EC100B3D
:102CA000FDF796FB41EC100B6D1E04EBC50090ED9B
:102CB000001B51EC100B53EC112BFDF7E2FA41EC29
:102CC000100B35F00600E7D1022D36D0042D1CD0B4
:102CD000062D1CBFBDEC028B70BD53EC182B51ECC4
:102CE000100BFDF775FB94ED0A1B53EC112BFDF750
:102CF000C8FA53EC182BFDF76BFB94ED081B53EC53
:102D0000112BFDF7BEFA41EC100B53EC182B51ECD4
:102D1000100BFDF75DFB94ED061B53EC112BFDF73B
:102D2000B0FA53EC182BFDF753FB94ED040B53EC66
:102D3000102BFDF7A6FA41EC100B53EC182B51ECBD
:102D4000100BFDF745FB94ED021B53EC112BFDF727
:102D500098FA53EC182BFDF73BFB94ED001B53EC5A
:102D6000112BFDF78EFABDEC028B41EC100B70BD00
:102D700031B504462DED040B2DED0A8BB0EE41BAB2
:102D8000F0EE61BA0B989DED0A0B20F00040B0F117
:102D9000795F0DDA51EC100BFFF755FA042808BFE4
:102DA00000F09AF89DED0A0BBDEC0A8B05B030BD22
:102DB00053EC102B51EC100BFDF70AFB41EC180BF8
:102DC0009DED0A0B53EC182B51EC100BFDF700FB9B
:102DD00041EC190B2C48B0EE480AF0EE680A0521C8
:102DE0007844FFF749FF9FED2ACBB0EE40AAF0EE02
:102DF00060AA9CB353EC1C2B51EC190BFDF7E8FABD
:102E000041EC1C0B53EC1A2B51EC190BFDF7E0FABB
:102E10009FED210B41EC190B53EC102B51EC1B0BCC
:102E2000FDF7D6FA53EC192BFDF7CCFA53EC182B1F
:102E3000FDF7CEFA53EC1B2BFDF7C4FA53EC1C2B19
:102E4000FDF7C0FA9DED0A1B53EC112BFDF7BDFAFF
:102E5000BDEC0A8B05B041EC100B30BDFFE753EC25
:102E60001A2B51EC180BFDF7B3FA53EC1C2BFDF7A2
:102E700008FA53EC192BFDF7ABFA9DED0A1B53EC46
:102E8000112BFDF7FEF9E3E734130000000000000A
:102E9000495555555555C5BF000000000000E03F9D
:102EA00010B553EC102B51EC100BFDF7EAF941EC87
:102EB000100B10BD000000009FED050B10B553EC8A
:102EC000102B51EC100BFDF7F5FA41EC100B10BD77
:102ED00000000000000000009FED050B10B553EC52
:102EE000102B51EC100BFDF773FA41EC100B10BDD9
:102EF000000000000000001030EE000A70470000E3
:102F0000DFED020A80EEA00A70470000000000001A
:102F10009FED020A20EE000A70470000000000103A
:102F200002E008C8121F08C1002AFAD17047704792
:102F3000002001E001C1121F002AFBD170470000F0
:102F400001490860704700002002002082B0CDE9EE
:102F5000000121F0004001909DED000B02B051EC0A
:102F6000100B70470E489FED0D0A104980ED000AC6
:102F70000C4880ED000A0C4880ED000A0020086033
:102F80000B499FED0C0B08600C4880ED140B80ED95
:102F9000180B80ED120B80ED160B7047000000003F
:102FA000180000202000002028000020240100201C
:102FB000200100200000000000000000A801002007
:102FC0002DED028B82B0FDF77BFDFEF7CDFEFEF707
:102FD000EFFCFEF76BFDFEF79FFDFEF7FFFCFEF733
:102FE000D1FDFEF7F1FDDFED3F1A9FED3F1ADFED5A
:102FF0003F0A9FED3F0A00F06DFD04210020CDE95E
:10300000000108230C2241F293113A4800F082FD9E
:1030100001204FF4C87400900423224636493748F3
:1030200000F094FD4FF0FF30009004232246344915
:10303000344800F05DFD3448FEF776F94FF46170D6
:1030400003461A46114600F03DFD9FED308ADFED44
:10305000318ADFED2F0AB0EE481AB0EE680AFEF7AB
:10306000EFFDB0EE481ADFED2C0AB0EE680AFEF76D
:10307000E7FD0A23012229A12948FEF73BFC41F282
:103080009410FDF729FCF0EE480A9FED260A00F0A7
:1030900055F8B0EE481AF3EE0E0A9FED230AFEF73C
:1030A000CFFD0A23012221A11D48FEF723FC40F693
:1030B000B830FDF711FCF0EE480A9FED1D0A00F054
:1030C0003DF80A2301221BA11548FEF713FC4FF41B
:1030D0007A70FDF701FCF0EE480A9FED170A00F048
:1030E0002DF8FEE700000B4300007343ACAD1F4218
:1030F00076F11F42240200200004004064020020F8
:1031000000080040A4020020E402002000002F4438
:10311000000000000000254400001B436100000087
:1031200024030020000020C300007AC362000000D6
:10313000004008C4630000000000C8C32DE9F05F30
:103140002DED088BF0EE608AB0EE408AFFF70AFFA3
:10315000CC4F68EEA80AB6EE009A97ED031AB0EECF
:10316000C80AC94DC0EE811A68EE890AC74E07F138
:10317000800460EEA80AB4EEE10AF1EE10FA0CD277
:10318000C0EE811A20EE090A84ED050A84ED060AD4
:1031900028EE800AC0EE218A5BE180EE810A84ED90
:1031A000050A84ED060A54E1B9480068C117C4E96C
:1031B0001C01D5ED000A96ED000A70EE800AB0EE13
:1031C000480A10EE890AB5EEC00AF1EE10FA01D2F3
:1031D000012001E04FF0FF30A06295ED000AD6ED2E
:1031E000000A30EE200A20EE090AF0EEC00A94ED43
:1031F000050AF4EEC00AF1EE10FA33D210EE100A0E
:10320000FDF7F7F995ED000AD6ED000A41EC1A0B2F
:1032100030EE200A20EE090AB0EEC00A10EE100AC5
:10322000FDF7E7F941EC1B0B9FED9A0AA06A78EED7
:10323000C00A00EE100A8046B8EEC00A20EE800AEE
:1032400010EE100AFDF7D5F953EC1B2BFDF7C0F873
:1032500053EC1A2BFDF72EF941EC1A0B322108FB27
:1032600001F047E095ED000AD6ED000A70EE200A65
:10327000B0EE480A10EE890AF0EEC00A94ED060A94
:10328000F4EEC00AF1EE10FA3ED210EE100AFDF78D
:10329000B0F9D5ED000A96ED000A41EC1B0B70EE7B
:1032A000800AB0EE480A10EE890AB0EEC00A10EEAD
:1032B000100AFDF79EF941EC1A0BB2EE040AA06A5F
:1032C00078EEC00A00EE100A8046B8EEC00A20EE82
:1032D000800A10EE100AFDF78CF953EC1A2BFDF75B
:1032E00077F853EC1B2BFDF7E5F841EC1A0B08EBD4
:1032F00088004000FDF74DF953EC1A2BFCF7C1FF95
:10330000FDF7BAF9606208E000EE100AB8EEC00AF4
:1033100020EE280A84ED090A606A8146FDF769F902
:1033200041EC100B5C4890ED001B51EC100B53EC82
:10333000112BFDF747F841EC1A0B84ED12AB94ED1D
:10334000140B53EC1A2B51EC100BFCF79AFF41ECC9
:103350001B0B84ED14BBF8698046FDF74AF953EC6A
:103360001B2BFDF735F841EC1B0BB8698346FDF7C5
:1033700040F953EC1A2BFDF72BF853EC1B2BFCF701
:1033800080FFFDF717F9824620624846FDF731F9C4
:1033900041EC100B414890ED001B51EC100B53EC2D
:1033A000112BFDF70FF841EC1A0B84ED16AB94EDE1
:1033B000180B53EC1A2B51EC100BFCF762FF41EC8D
:1033C0001B0B404684ED18BBFDF713F953EC1B2B88
:1033D000FCF7FEFF41EC1B0B5846FDF70AF953ECD6
:1033E0001A2BFCF7F5FF53EC1B2BFCF74AFFFDF7FC
:1033F000E1F8E06195ED000AD6ED000A70EE600A92
:1034000097ED080AB8EEC00A20EE800ABDEEC00AA9
:1034100010EE101A4B42C7E901310AEB0302204BB0
:10342000084420491A60086000F09CFAD4E91C2383
:10343000DFF85CC0DCF800104FF00A08C817891AE2
:1034400060EB0300B1EB080870F10008F2D3C4E9A7
:103450001A10D5ED000A96ED000A30EE800AF0EE63
:10346000480A50EE090AB0EEE00A10EE100AB0F178
:103470007E5F3FF799AEBDEC088BBDE8F05F00F0D2
:1034800047BC000028010020180000202000002078
:103490001400002000004842B0000020C0000020BE
:1034A000F4000020F80000200E48104A90ED001AA9
:1034B0000D4830EE410A9FED0E1A10EE101A80ED05
:1034C000040A914203DD30EE410A80ED040A10EE59
:1034D000101A084A914203D930EE010A80ED040A1D
:1034E00000F076B89C000020A801002000003443C2
:1034F0000000B443000034C39FED091B10B553EC2A
:10350000112B51EC100BFCF763FF9FED071B53ECE5
:10351000112BFCF7CFFFFDF7AFF800EE100A10BD3E
:10352000000000000080764000000060FB21194090
:103530001248016E4166016D496AC26D51430166D0
:10354000016E426E891A8166816E47F23052914255
:1035500004DD816EA1F57F41FF398166816E47F2FE
:103560003052D14204DA816E4FF6FF721144816607
:10357000C16E826E1144C1667047000010000020C9
:103580001248C16B0164C16A496A826B5143C163CD
:10359000C16B026C891A4164416C47F2305291420E
:1035A00004DD416CA1F57F41FF394164416C47F274
:1035B0003052D14204DA416C4FF6FF72114441643B
:1035C000816C426C1144816470470000100000203F
:1035D0002DE9F05FB0EE401A2DED068BB0EE608A5B
:1035E000FFF7C0FC9FEDD20AD24821EE000AD0EDD1
:1035F000000A60EE200A9FEDD01AD04CDFF840B3ED
:1036000080EE810AF0EE000AA4F1800768EE200A3D
:10361000CC4DCD4E20EE881A84ED030AD7ED040A76
:10362000B0EEC00AC1EE201A28EE081AB4EEE10A84
:10363000F1EE10FA0ED2F6EE001A20EE210AC1EEDB
:10364000201A84ED050A84ED060A28EE000A80EEB1
:10365000218A54E181EE200A84ED050A84ED060AF0
:103660004DE100BFDBF80000C117C4E91C0195ED76
:10367000000AD6ED000A30EE600A30EE680AB5EEB8
:10368000C00AF1EE10FA01D2012001E04FF0FF3044
:10369000A06295ED000AD6ED000A30EE600AF0EE69
:1036A000C00A94ED050AF4EEC00AF1EE10FA2FD22A
:1036B00010EE100AFCF79DFF95ED000AD6ED000A0A
:1036C00041EC190B30EE600AB0EEC00A10EE100AA1
:1036D000FCF78FFF41EC1A0B9FED9C0AA06A78EE75
:1036E000400A00EE100A8046B8EEC00A20EE800ABA
:1036F00010EE100AFCF77DFF53EC1A2BFCF768FE66
:1037000053EC192BFCF7D6FE41EC190B642141E078
:1037100095ED000AD6ED000A30EE600A30EE680A38
:10372000F0EEC00A94ED060AF4EEC00AF1EE10FACB
:103730003CD210EE100AFCF75CFF95ED000AD6EDC6
:10374000000A41EC190B30EE600A30EE680AB0EE68
:10375000C00A10EE100AFCF74CFF41EC1A0B9FED6B
:103760007C0AA06A78EE400A00EE100A8046B8EEA5
:10377000C00A20EE800A10EE100AFCF73AFF53EC64
:103780001A2BFCF725FE53EC192BFCF793FE41ECAA
:10379000190B322108FB01F0FCF7FBFE53EC192B4F
:1037A000FCF76FFDFCF768FF606207E000EE100AAF
:1037B000B8EEC00A20EE080A84ED090AD4ED098AA1
:1037C00018EE900AFCF715FF41EC100B614890EDE4
:1037D000001B51EC100B53EC112BFCF7F3FD41ECEB
:1037E000190B84ED129B94ED140B53EC192B51EC37
:1037F000100BFCF746FD41EC1A0B84ED14ABF86995
:103800008246FCF7F6FE53EC1A2BFCF7E1FD41EC87
:103810001A0BB8698146FCF7ECFE53EC192BFCF748
:10382000D7FD53EC1A2BFCF72CFDFCF7C3FE8046AA
:10383000B1EE680A206210EE100AFCF7DAFE41ECE5
:10384000100B454890ED001B51EC100B53EC112B65
:10385000FCF7B8FD41EC190B84ED169B94ED180BA9
:1038600053EC192B51EC100BFCF70BFD41EC1A0B30
:10387000504684ED18ABFCF7BCFE53EC1A2BFCF75A
:10388000A7FD41EC1A0B4846FCF7B3FE53EC192B8D
:10389000FCF79EFD53EC1A2BFCF7F3FCFCF78AFEB9
:1038A000E06195ED000AD6ED000A70EE200A97ED72
:1038B000000AB8EEC00A20EE800ABDEEC00A10EE83
:1038C000101A4B42C7E9013108EB0302234B401A9F
:1038D00023491A60086000F045F8D4E91C23DC464F
:1038E000DCF800104FF00A08C817891A60EB0300D3
:1038F000B1EB080870F10008F2D3C4E91A1095ED95
:10390000000AD6ED000AD4ED038A30EE600AF0EE2C
:10391000E80AB0EEC00AB4EEE00AF1EE10FAFFF4E5
:10392000A1AEBDEC068BBDE8F05F00F0F1B9000080
:10393000DB0F49409400002000003443A801002020
:103940001400002018000020200000200000C842C1
:1039500000004842B0000020C0000020F400002019
:10396000F8000020F0B55649002208464E69D0E91B
:103970000153C4690068002E24DDA64200DD4C61BD
:1039800075B1042D10D0082D4D69066810D035642E
:1039900083B1042B11D0082B036811D01A6426E0E0
:1039A00006684D697563F3E706684D69B563EFE72F
:1039B000F563EDE703685A6319E003689A6316E05C
:1039C000DA6314E06742BE4200DA4F6145B3042D6A
:1039D00029D0082D056829D02A644BB3042B2CD09C
:1039E000082B4B690568C3F100032BD02B64344DC1
:1039F0008E69D5E90335002E38DDA64200DD8C61E5
:103A000013B3042B24D0082B8969036824D01964CC
:103A100025B3042D25D00068082D25D00264F0BD03
:103A200005686A63D9E70568AA63D6E7EA63D4E75D
:103A30004B6905685B426B63D9E74B6905685B427C
:103A4000AB63D4E7EB63D2E7036889695963DFE7C7
:103A5000036889699963DBE7D963D9E70068426342
:103A6000F0BD00688263F0BDC263F0BD6442A6424F
:103A700000DA8C6183B1042B11D0082B036811D0BC
:103A80001A648DB1042D14D089690068082DC1F124
:103A9000000113D00164F0BD03685A63F1E70368C5
:103AA0009A63EEE7DA63ECE78969006849424163AB
:103AB000F0BD8969006849428163F0BDC163F0BD12
:103AC000E000002010B5024C84E80F0010BD00009B
:103AD000000100200548A0F1800180ED000AC1ED41
:103AE0001F0A80ED011AC0ED021A704790000020F5
:103AF00070B5074C049D04F14C0686E82F000021A8
:103B0000FDF7C2FC216D00204862E06670BD000038
:103B10001000002070B50C4CDDE90456E16184E82A
:103B20006D000021FDF742FE04212068FDF73EFEF6
:103B300008212068FDF73AFE0C212068FDF736FECB
:103B4000BDE8704000F0E4B8E000002070B5074C1C
:103B5000049D04F1280686E82F000021FDF794FC5F
:103B6000E16A00204862A06470BD000010000020DF
:103B700070B54C4D2DED048BB2EE048AD5ED030AE1
:103B800080EE880ADFED488A20EE280A10EE100A3F
:103B9000FCF72FFD41EC100B05F1800484ED0A0BBE
:103BA0009FED429A85ED039A95ED050AC0EE080A4D
:103BB00020EEA80A10EE100AFCF71BFD41EC100BDA
:103BC00084ED0E0B9FED3A0B85ED059A53EC102B0F
:103BD00094ED120B51EC100BFCF76CFC9FED361BB7
:103BE00053EC112BFCF7F4FB41EC100B84ED100BA4
:103BF0009FED330B84ED120B94ED020A10EE100AC8
:103C0000FCF7F7FC94ED101B53EC112BFCF7E0FBD9
:103C10009FED2D8B53EC182BFCF7DAFB94ED0E0B7C
:103C200041EC190B53EC102B94ED0A0B51EC100BDB
:103C3000FCF727FB53EC182BFCF7CAFB53EC192BB2
:103C4000FCF71FFB41EC100B84ED080B94ED020A0E
:103C500010EE100AFCF7CDFC94ED101B53EC112B69
:103C6000FCF7B6FB53EC182BFCF7B2FB94ED0E0BF4
:103C700041EC190B53EC102B94ED0A0B51EC100B8B
:103C8000FCF7FFFA53EC182BFCF7A2FB53EC192BB3
:103C9000FCF798FB41EC100B84ED0C0BBDEC048B96
:103CA00070BD00001000002000007A4400000000F9
:103CB00000000000000024400000000000408F4091
:103CC0000000000000000000000000000000E03FD5
:103CD00010B500EE100A2DED028BB1EEC08A18EE81
:103CE000100A20F00040C0F1FF40C00F0AD010EED3
:103CF000100A20F00040C0F1FF40C00F04BF0120B7
:103D0000FFF71EF918EE100ABDEC028B10BD000083
:103D10000549002009680A6850630A6890630A68C8
:103D2000D063096808647047E0000020400000EE9E
:103D3000900A9FED081A5143F8EEE00A60EE810AFE
:103D400060EE800A00EE101AB8EEC01A80EE810A0A
:103D500070470000DB0F494070B52DED048BFFF775
:103D60000FFCFFF7E5FBA04C04F18005D4E90C1231
:103D700095ED000A606CFFF7D9FF84ED1C0A94ED05
:103D8000020AD4ED1C0A30EE200A84ED020A94EDFA
:103D9000030AD4ED1C0A30EE200A84ED030AD4E9AC
:103DA000151294ED1F0AA06EFFF7C0FF84ED1D0AE7
:103DB00094ED040AD4ED1D0A30EE200A84ED040AC5
:103DC00094ED050AD4ED1D0A30EE200A84ED050AB3
:103DD00094ED1C0AD4ED1D0A30EE200AF6EE000A1E
:103DE00020EE200A84ED1E0A94ED060AD4ED1E0A88
:103DF00030EE200A84ED060A95ED060BFEF780FBF7
:103E0000B0EE408A94ED1E0AF0EE608A10EE100AC1
:103E1000FCF7EFFB53EC182BFCF7DAFA94ED070AEA
:103E200041EC180B10EE100AFCF7E3FB53EC182BD7
:103E3000FCF727FAFCF720FC00EE100A84ED070AD5
:103E400095ED060BFEF7C0FBB0EE408A94ED1E0A1E
:103E5000F0EE608A10EE100AFCF7CBFB53EC182B47
:103E6000FCF7B6FA94ED080A41EC180B10EE100AB4
:103E7000FCF7BFFB53EC182BFCF703FAFCF7FCFB39
:103E800000EE100A84ED080A94ED1C0AD4ED1D0A18
:103E900095ED011A70EE600A80EE810A10EE100AAC
:103EA000FCF7A7FB95ED061B53EC112BFCF7E9F98A
:103EB00041EC100B85ED060B94ED1C0AD4ED1D0AA8
:103EC00095ED011A70EE600A80EE810A10EE100A7C
:103ED000FCF78FFB95ED121B53EC112BFCF7D1F97E
:103EE00041EC100B85ED120B9FED408B9FED419B3C
:103EF0000CE000BF95ED060B53EC182B51EC100BAA
:103F0000FCF760FA41EC100B85ED060B95ED060B06
:103F100053EC192B51EC100BFCF796FBEAD39FEDF9
:103F2000379B00BF95ED060B53EC192B51EC100B92
:103F3000FCF772FB0CD295ED060B53EC182B51ECF1
:103F4000100BFCF79EF941EC100B85ED060BE9E731
:103F500095ED060BFFF7D0FA85ED030A2068401CAB
:103F600020606068401C6060606AFCF742FB41ECC6
:103F7000180B95ED060BFEF7C3FA53EC182B51EC1A
:103F8000100BFCF725FA94ED070A41EC180B10EE24
:103F9000100AFCF72EFB53EC182BFCF772F9FCF718
:103FA0006BFB2861606AFCF724FB41EC180B95ED74
:103FB000060BFEF709FB53EC182B51EC100BFCF72A
:103FC00007FA94ED080A41EC180B10EE100AFCF702
:103FD00010FB53EC182BFCF754F9FCF74DFB686110
:103FE000BDEC048B70BD00001000002000000060DC
:103FF000FB21194000000060FB2109400000006027
:10400000FB2109C0000000000000000001020304C1
:104010000607080900000000010203040000000078
:104020004C5555555555A53F7751C1166CC156BFD6
:104030009015CB19A001FA3EAD529C804F7E92BEE6
:10404000C4B1B4BD9EEE213ED43888BEE9FAA8BD05
:1040500000004054FB21F93F3163621A61B4D03D46
:104060000000601A61B4D03D7370032E8A19A33B1F
:104070000000002E8A19A33BC14920259A837B3971
:1040800000000000000000006E83F9A22915444ED4
:10409000D15727FCC0DD34F5999562DB4190433C54
:1040A000AB6351FE61C5BBDE3A6E24B7E0D24D4230
:1040B000EA2E49061C92D1091CEB1DFE3EA729B130
:1040C000F53582E88444BB2E26709CE9417E5FB4BE
:1040D00039D69139F43953838B5F849C3B28F9BDE1
:1040E000FF97F81F0F9805DE8B112FEF1F6D0A5AEF
:1040F000CF7E366DB709CB27663F464F2DEA5F9ED0
:10410000C7BA27757BF1E5EBF739073DEA92528A8A
:10411000B15FFB6B085D8D1FA6F810111111813F77
:10412000D561C119A0012ABF7DFEB157E31DC73E6D
:10413000EB9C2B8AE6E55ABE7CD5CF5A3AD9E53DB1
:104140006041000800000020240200007A080008F6
:10415000904100082402002044050000302F000890
:1041600032018210032724F403F0C842D2642348AA
:10417000441BC84308190400082D2041CDCC4C3EF7
:10418000232378418BE03F08012403784842000054
:04000005080001C529
:00000001FF
